:020000040800F2
:10000000600600206D0100087501000877010008F6
:10001000790100087B0100087D0100080000000054
:100020000000000000000000000000007F01000848
:10003000810100080000000083010008850100081C
:100040008701000887010008870100088701000870
:100050008701000887010008870100088701000860
:100060008701000887010008870100088701000850
:100070008701000887010008870100088701000840
:100080008701000887010008870100088701000830
:100090008701000887010008870100088701000820
:1000A0008701000887010008870100088701000810
:1000B0008701000887010008870100088701000800
:1000C00087010008870100088701000887010008F0
:1000D00087010008870100088701000887010008E0
:1000E00087010008870100088701000800F002F876
:1000F00000F02CF80AA090E8000C82448344AAF196
:100100000107DA4501D100F021F8AFF2090EBAE893
:100110000F0013F0010F18BFFB1A43F0010318473B
:100120007004000080040000002300240025002645
:10013000103A28BF78C1FBD8520728BF30C148BF4A
:100140000B6070471FB51FBD10B510BD00F031F832
:100150001146FFF7F7FF00F0FBF900F04FF803B48A
:10016000FFF7F2FF03BC00F053F800000948804796
:1001700009480047FEE7FEE7FEE7FEE7FEE7FEE789
:10018000FEE7FEE7FEE7FEE704480549054A064BA1
:1001900070470000F5030008ED0000086000002033
:1001A0006006002060020020600200207047704757
:1001B0007047754600F028F8AE460500694653467C
:1001C00020F00700854618B020B5FFF7DDFFBDE839
:1001D00020404FF000064FF000074FF000084FF0AE
:1001E000000B21F00701AC46ACE8C009ACE8C0093F
:1001F000ACE8C009ACE8C0098D4670470446AFF3CF
:1002000000802046FFF7ABFF004870470000002049
:1002100001491820ABBEFEE726000200704700002F
:1002200008B54FF40050ADF8000010208DF8030021
:1002300003208DF802006946064800F00FF80120FF
:10024000ADF8000004208DF803006946024800F074
:1002500005F808BD00100140000801402DE9F041FB
:100260000022CC7804F00F03E40601D58C782343F8
:100270000C784FF00F0714F0FF0F4FF0010C1CD05B
:1002800005680CFA02F40E882640A64211D19600A9
:1002900007FA06F825EA080503FA06F848EA05050C
:1002A000CE78282E02D0482E02D002E0446100E031
:1002B0000461521C082AE4D305600A88FF2A1ED96B
:1002C0004568002202F108060CFA06F40E88264062
:1002D000A64210D1960007FA06F825EA080503FAA7
:1002E00006F848EA0505CE78282E00D14461CE787C
:1002F000482E00D10461521C082AE3D34560BDE8B2
:10030000F08141617047016170470000054A002992
:1003100003D0D1690143D1617047D1698143D16173
:10032000704700000010024010B501211020FFF7B7
:10033000EDFF0121BDE810400846FFF7E7BF00F0E0
:1003400001B800000CB50022019200922748016814
:1003500041F4803101604FF4A063016801F4003181
:1003600000910199491C0191009911B90199994293
:10037000F3D10168890302D50121009100E00092C8
:100380000099012930D11A490A6842F010020A6026
:100390000A6822F007020A600A6842F002020A6054
:1003A0004168416041684160416841F48061416059
:1003B000416821F47C114160416841F4E8114160D9
:1003C000016841F08071016001688901FCD54168D4
:1003D00021F003014160416841F002014160416840
:1003E000C1F381010229FAD10CBD000000100240C6
:1003F0000020024010B50F48016841F00101016082
:1004000041680D4A1140416001680C4A1140016089
:10041000016821F480210160416821F4FE014160FE
:100420004FF41F018160FFF78AFF05494FF000601C
:10043000086010BD001002400000FFF8FFFFF6FE4C
:1004400008ED00E0002904D0018841F0010101809D
:100450007047018821F00101018070473EB50446D4
:1004600041F61F41ADF800104FF6FF71ADF80410D2
:100470000021ADF80610ADF802106946204600F0E4
:1004800009F801212046FFF7DDFF3EBD808C704753
:100490008184704730B502881B4C1C4DA0420DD0A2
:1004A000A8420BD0B0F1804F08D0194B984205D02C
:1004B000184B984202D0184B984203D122F0700397
:1004C0004A881A43154B984206D0154B984203D0E0
:1004D00022F44073CA881A4302808A8882850A8877
:1004E0000285A0420AD0A84208D00E4A904205D008
:1004F0000D4A904202D00D4A904201D1097A0186FC
:100500000121818230BD0000002C014000340140F7
:100510000004004000080040000C004000100040B3
:1005200000140040004001400044014000480140E8
:1005300070B505460C4600212846FFF7A9FF04EBDD
:1005400084042846FFF7A2FFB0EB440FF9D370BD37
:10055000FFF7EAFE4FF080473846FFF77FFFFFF7CF
:100560005FFE0A4D7C1442F2107621462846FFF7C2
:10057000CAFE31463846FFF7DBFF21462846FFF723
:10058000C0FE31463846FFF7D3FFEEE700100140CA
:10059000A0050008000000206006000028010008F7
:040000050800016D81
:00000001FF
